:1000000012C02CC02BC02AC029C028C027C026C0BF
:1000100025C024C023C022C021C020C01FC01EC0D4
:100020001DC01CC01BC011241FBECFE5D4E0DEBF25
:10003000CDBF10E0A0E6B0E0ECEAF0E002C0059031
:100040000D92A437B107D9F720E0A4E7B0E001C0D2
:100050001D92A637B207E1F702D026C0D1CF8FEFAD
:1000600081BB109275001092740080E090E0880FC0
:10007000991FFC01E05AFF4F808182BB2FE986E87F
:1000800091E0215080409040E1F700C00000809155
:1000900074009091750001969093750080937400A0
:0C00A0008A309105F4F6E3CFF894FFCF0E
:1000AC003F0006005B004F0066006D007D000700FE
:0400BC007F006F0052
:00000001FF
