:100000000C9434000C943E000C943E000C943E0082
:100010000C943E000C943E000C943E000C943E0068
:100020000C943E000C943E000C943E000C943E0058
:100030000C943E000C943E000C943E000C943E0048
:100040000C943E000C943E000C943E000C943E0038
:100050000C943E000C943E000C943E000C943E0028
:100060000C943E000C943E0011241FBECFEFD8E04C
:10007000DEBFCDBF0E9440000C9494000C940000A1
:100080008FE08AB91BB861E070E020E030E04BB14E
:10009000CB01022E02C0880F991F0A94E2F7942F19
:1000A000982B9BB94FE956E8E1E041505040E040C1
:1000B000E1F700C000009BB1809589238BB94FE91F
:1000C00056E881E0415050408040E1F700C0000018
:1000D0002F5F3F4F24303105D1F623E030E04BB1A4
:1000E000CB01022E02C0880F991F0A94E2F7942FC9
:1000F000982B9BB9EFE946E851E0E1504040504071
:10010000E1F700C000009BB1809589238BB98FE98E
:1001100096E8E1E081509040E040E1F700C0000047
:0C01200021503109E0F6B1CFF894FFCF78
:00000001FF
