:1000000012C019C018C017C016C015C014C013C044
:1000100012C011C010C00FC00EC00DC00CC00BC06C
:100020000AC009C008C011241FBECFE5D4E0DEBF5E
:10003000CDBF02D047C0E4CF8FEF81BB12BA86B1EB
:10004000836886B987B187B9A1E0F3E0E7E07FE094
:100050006FE15FE34FE73FEF369A349BFECF84B109
:1000600025B190E0922B8138910510F0A2BB01C020
:1000700012BA813021E0920708F0F2BB813821E00A
:10008000920708F0E2BB813022E0920708F072BBD1
:10009000813822E0920708F062BB813023E09207AA
:1000A00008F052BB813823E0920708F042BB8D3F35
:1000B000934008F032BB8BE49DE10197F1F700C05B
:0800C0000000CACFF894FFCF45
:00000001FF
